{
  "_format": "hh-sol-artifact-1",
  "contractName": "ScoreRegistry",
  "sourceName": "contracts/ScoreRegistry.sol",
  "abi": [
    {
      "anonymous": false,
      "inputs": [
        {
          "indexed": true,
          "internalType": "address",
          "name": "player",
          "type": "address"
        },
        {
          "indexed": false,
          "internalType": "uint256",
          "name": "score",
          "type": "uint256"
        },
        {
          "indexed": false,
          "internalType": "bytes32",
          "name": "gameId",
          "type": "bytes32"
        },
        {
          "indexed": false,
          "internalType": "uint256",
          "name": "amount",
          "type": "uint256"
        },
        {
          "indexed": false,
          "internalType": "uint256",
          "name": "timestamp",
          "type": "uint256"
        }
      ],
      "name": "ScoreSubmitted",
      "type": "event"
    },
    {
      "inputs": [],
      "name": "FEE",
      "outputs": [
        {
          "internalType": "uint256",
          "name": "",
          "type": "uint256"
        }
      ],
      "stateMutability": "view",
      "type": "function"
    },
    {
      "inputs": [],
      "name": "RECIPIENT",
      "outputs": [
        {
          "internalType": "address",
          "name": "",
          "type": "address"
        }
      ],
      "stateMutability": "view",
      "type": "function"
    },
    {
      "inputs": [],
      "name": "USDC",
      "outputs": [
        {
          "internalType": "contract IERC20",
          "name": "",
          "type": "address"
        }
      ],
      "stateMutability": "view",
      "type": "function"
    },
    {
      "inputs": [
        {
          "internalType": "uint256",
          "name": "score",
          "type": "uint256"
        },
        {
          "internalType": "bytes32",
          "name": "gameId",
          "type": "bytes32"
        }
      ],
      "name": "submitScore",
      "outputs": [],
      "stateMutability": "nonpayable",
      "type": "function"
    }
  ],
  "bytecode": "0x608060405234801561001057600080fd5b5061059d806100206000396000f3fe608060405234801561001057600080fd5b506004361061004c5760003560e01c80630d9019e11461005157806389a302711461006f578063c57981b51461008d578063def8315a146100ab575b600080fd5b6100596100c7565b604051610066919061028a565b60405180910390f35b6100776100df565b6040516100849190610304565b60405180910390f35b6100956100f7565b6040516100a29190610338565b60405180910390f35b6100c560048036038101906100c091906103ba565b6100fe565b005b736edd22e9792132614dd487ac6434dec3709b79a881565b73833589fcd6edb6e08f4c7c32d4f71b54bda0291381565b620249f081565b600073833589fcd6edb6e08f4c7c32d4f71b54bda0291373ffffffffffffffffffffffffffffffffffffffff166323b872dd33736edd22e9792132614dd487ac6434dec3709b79a8620249f06040518463ffffffff1660e01b8152600401610168939291906103fa565b6020604051808303816000875af1158015610187573d6000803e3d6000fd5b505050506040513d601f19601f820116820180604052508101906101ab9190610469565b9050806101ed576040517f08c379a00000000000000000000000000000000000000000000000000000000081526004016101e4906104f3565b60405180910390fd5b3373ffffffffffffffffffffffffffffffffffffffff167f6f5c443571c46e98445d6ee1e17b327c25e5af01bc89dd28d89d43f386e49bd78484620249f04260405161023c9493929190610522565b60405180910390a2505050565b600073ffffffffffffffffffffffffffffffffffffffff82169050919050565b600061027482610249565b9050919050565b61028481610269565b82525050565b600060208201905061029f600083018461027b565b92915050565b6000819050919050565b60006102ca6102c56102c084610249565b6102a5565b610249565b9050919050565b60006102dc826102af565b9050919050565b60006102ee826102d1565b9050919050565b6102fe816102e3565b82525050565b600060208201905061031960008301846102f5565b92915050565b6000819050919050565b6103328161031f565b82525050565b600060208201905061034d6000830184610329565b92915050565b600080fd5b6103618161031f565b811461036c57600080fd5b50565b60008135905061037e81610358565b92915050565b6000819050919050565b61039781610384565b81146103a257600080fd5b50565b6000813590506103b48161038e565b92915050565b600080604083850312156103d1576103d0610353565b5b60006103df8582860161036f565b92505060206103f0858286016103a5565b9150509250929050565b600060608201905061040f600083018661027b565b61041c602083018561027b565b6104296040830184610329565b949350505050565b60008115159050919050565b61044681610431565b811461045157600080fd5b50565b6000815190506104638161043d565b92915050565b60006020828403121561047f5761047e610353565b5b600061048d84828501610454565b91505092915050565b600082825260208201905092915050565b7f55534443205061796d656e74204661696c656400000000000000000000000000600082015250565b60006104dd601383610496565b91506104e8826104a7565b602082019050919050565b6000602082019050818103600083015261050c816104d0565b9050919050565b61051c81610384565b82525050565b60006080820190506105376000830187610329565b6105446020830186610513565b6105516040830185610329565b61055e6060830184610329565b9594505050505056fea26469706673582212203992ad6863441d8ee5964e4364c14d02bdb59c0f56c3f4741e02f316c6a4a31e64736f6c63430008140033",
  "linkReferences": {},
  "deployedLinkReferences": {}
}