{
  "_format": "hh-sol-artifact-1",
  "contractName": "PvPRegistry",
  "sourceName": "contracts/PvPRegistry.sol",
  "abi": [
    {
      "inputs": [],
      "stateMutability": "nonpayable",
      "type": "constructor"
    },
    {
      "anonymous": false,
      "inputs": [
        {
          "indexed": true,
          "internalType": "address",
          "name": "owner",
          "type": "address"
        },
        {
          "indexed": false,
          "internalType": "uint256",
          "name": "amount",
          "type": "uint256"
        }
      ],
      "name": "EmergencyWithdraw",
      "type": "event"
    },
    {
      "anonymous": false,
      "inputs": [
        {
          "indexed": true,
          "internalType": "uint256",
          "name": "gameId",
          "type": "uint256"
        },
        {
          "indexed": true,
          "internalType": "address",
          "name": "creator",
          "type": "address"
        }
      ],
      "name": "GameCancelled",
      "type": "event"
    },
    {
      "anonymous": false,
      "inputs": [
        {
          "indexed": true,
          "internalType": "uint256",
          "name": "gameId",
          "type": "uint256"
        },
        {
          "indexed": true,
          "internalType": "address",
          "name": "creator",
          "type": "address"
        },
        {
          "indexed": false,
          "internalType": "uint256",
          "name": "amount",
          "type": "uint256"
        }
      ],
      "name": "GameCreated",
      "type": "event"
    },
    {
      "anonymous": false,
      "inputs": [
        {
          "indexed": true,
          "internalType": "uint256",
          "name": "gameId",
          "type": "uint256"
        },
        {
          "indexed": true,
          "internalType": "address",
          "name": "opponent",
          "type": "address"
        }
      ],
      "name": "GameJoined",
      "type": "event"
    },
    {
      "anonymous": false,
      "inputs": [
        {
          "indexed": true,
          "internalType": "uint256",
          "name": "gameId",
          "type": "uint256"
        },
        {
          "indexed": false,
          "internalType": "address",
          "name": "creator",
          "type": "address"
        },
        {
          "indexed": false,
          "internalType": "uint256",
          "name": "refundCreator",
          "type": "uint256"
        },
        {
          "indexed": false,
          "internalType": "address",
          "name": "opponent",
          "type": "address"
        },
        {
          "indexed": false,
          "internalType": "uint256",
          "name": "refundOpponent",
          "type": "uint256"
        }
      ],
      "name": "GameRefunded",
      "type": "event"
    },
    {
      "anonymous": false,
      "inputs": [
        {
          "indexed": true,
          "internalType": "uint256",
          "name": "gameId",
          "type": "uint256"
        },
        {
          "indexed": true,
          "internalType": "address",
          "name": "winner",
          "type": "address"
        },
        {
          "indexed": false,
          "internalType": "uint256",
          "name": "payout",
          "type": "uint256"
        }
      ],
      "name": "GameSettled",
      "type": "event"
    },
    {
      "anonymous": false,
      "inputs": [
        {
          "indexed": true,
          "internalType": "uint256",
          "name": "gameId",
          "type": "uint256"
        },
        {
          "indexed": true,
          "internalType": "address",
          "name": "player",
          "type": "address"
        }
      ],
      "name": "RevivePurchased",
      "type": "event"
    },
    {
      "inputs": [],
      "name": "GAME_TIMEOUT",
      "outputs": [
        {
          "internalType": "uint256",
          "name": "",
          "type": "uint256"
        }
      ],
      "stateMutability": "view",
      "type": "function"
    },
    {
      "inputs": [],
      "name": "MIN_ENTRY_FEE",
      "outputs": [
        {
          "internalType": "uint256",
          "name": "",
          "type": "uint256"
        }
      ],
      "stateMutability": "view",
      "type": "function"
    },
    {
      "inputs": [],
      "name": "OWNER",
      "outputs": [
        {
          "internalType": "address",
          "name": "",
          "type": "address"
        }
      ],
      "stateMutability": "view",
      "type": "function"
    },
    {
      "inputs": [],
      "name": "REVIVE_FEE",
      "outputs": [
        {
          "internalType": "uint256",
          "name": "",
          "type": "uint256"
        }
      ],
      "stateMutability": "view",
      "type": "function"
    },
    {
      "inputs": [],
      "name": "USDC",
      "outputs": [
        {
          "internalType": "contract IERC20",
          "name": "",
          "type": "address"
        }
      ],
      "stateMutability": "view",
      "type": "function"
    },
    {
      "inputs": [
        {
          "internalType": "uint256",
          "name": "_gameId",
          "type": "uint256"
        }
      ],
      "name": "buyRevive",
      "outputs": [],
      "stateMutability": "nonpayable",
      "type": "function"
    },
    {
      "inputs": [
        {
          "internalType": "uint256",
          "name": "_gameId",
          "type": "uint256"
        }
      ],
      "name": "cancelGame",
      "outputs": [],
      "stateMutability": "nonpayable",
      "type": "function"
    },
    {
      "inputs": [
        {
          "internalType": "uint256",
          "name": "amount",
          "type": "uint256"
        }
      ],
      "name": "createGame",
      "outputs": [],
      "stateMutability": "nonpayable",
      "type": "function"
    },
    {
      "inputs": [
        {
          "internalType": "uint256",
          "name": "amount",
          "type": "uint256"
        }
      ],
      "name": "emergencyWithdraw",
      "outputs": [],
      "stateMutability": "nonpayable",
      "type": "function"
    },
    {
      "inputs": [],
      "name": "gameIdCounter",
      "outputs": [
        {
          "internalType": "uint256",
          "name": "",
          "type": "uint256"
        }
      ],
      "stateMutability": "view",
      "type": "function"
    },
    {
      "inputs": [
        {
          "internalType": "uint256",
          "name": "",
          "type": "uint256"
        }
      ],
      "name": "games",
      "outputs": [
        {
          "internalType": "address",
          "name": "creator",
          "type": "address"
        },
        {
          "internalType": "address",
          "name": "opponent",
          "type": "address"
        },
        {
          "internalType": "address",
          "name": "winner",
          "type": "address"
        },
        {
          "internalType": "enum PvPRegistry.GameState",
          "name": "state",
          "type": "uint8"
        },
        {
          "internalType": "uint256",
          "name": "totalPool",
          "type": "uint256"
        },
        {
          "internalType": "uint256",
          "name": "betAmount",
          "type": "uint256"
        },
        {
          "internalType": "uint256",
          "name": "createdAt",
          "type": "uint256"
        },
        {
          "internalType": "uint256",
          "name": "startedAt",
          "type": "uint256"
        }
      ],
      "stateMutability": "view",
      "type": "function"
    },
    {
      "inputs": [
        {
          "internalType": "uint256",
          "name": "",
          "type": "uint256"
        },
        {
          "internalType": "address",
          "name": "",
          "type": "address"
        }
      ],
      "name": "hasRevived",
      "outputs": [
        {
          "internalType": "bool",
          "name": "",
          "type": "bool"
        }
      ],
      "stateMutability": "view",
      "type": "function"
    },
    {
      "inputs": [
        {
          "internalType": "uint256",
          "name": "_gameId",
          "type": "uint256"
        }
      ],
      "name": "joinGame",
      "outputs": [],
      "stateMutability": "nonpayable",
      "type": "function"
    },
    {
      "inputs": [
        {
          "internalType": "uint256",
          "name": "_gameId",
          "type": "uint256"
        }
      ],
      "name": "refundStaleGame",
      "outputs": [],
      "stateMutability": "nonpayable",
      "type": "function"
    },
    {
      "inputs": [
        {
          "internalType": "uint256",
          "name": "_gameId",
          "type": "uint256"
        },
        {
          "internalType": "address",
          "name": "_winner",
          "type": "address"
        }
      ],
      "name": "settleGame",
      "outputs": [],
      "stateMutability": "nonpayable",
      "type": "function"
    },
    {
      "inputs": [],
      "name": "totalValueLocked",
      "outputs": [
        {
          "internalType": "uint256",
          "name": "",
          "type": "uint256"
        }
      ],
      "stateMutability": "view",
      "type": "function"
    }
  ],
  "bytecode": "0x608060405234801561001057600080fd5b506001600481905550613724806100286000396000f3fe608060405234801561001057600080fd5b50600436106101005760003560e01c80638188375911610097578063ec18154e11610066578063ec18154e1461028e578063efaa55a0146102ac578063f23fe0d6146102c8578063ffdfaf02146102e457610100565b8063818837591461021a57806389a3027114610238578063987cd4e114610256578063c424a6821461027257610100565b8063368a7468116100d3578063368a74681461019657806348e837b9146101c65780635312ea8e146101e257806369958ab9146101fe57610100565b8063099420b614610105578063117803e314610123578063117a5b90146101415780631bb412d614610178575b600080fd5b61010d610302565b60405161011a919061263e565b60405180910390f35b61012b610309565b604051610138919061269a565b60405180910390f35b61015b600480360381019061015691906126e6565b610321565b60405161016f98979695949392919061278a565b60405180910390f35b6101806103d6565b60405161018d919061263e565b60405180910390f35b6101b060048036038101906101ab9190612834565b6103dc565b6040516101bd919061288f565b60405180910390f35b6101e060048036038101906101db91906126e6565b61040b565b005b6101fc60048036038101906101f791906126e6565b61094d565b005b610218600480360381019061021391906126e6565b610ca2565b005b6102226110c6565b60405161022f919061263e565b60405180910390f35b6102406110cd565b60405161024d9190612909565b60405180910390f35b610270600480360381019061026b91906126e6565b6110e5565b005b61028c60048036038101906102879190612834565b6116dc565b005b610296611ce5565b6040516102a3919061263e565b60405180910390f35b6102c660048036038101906102c191906126e6565b611ceb565b005b6102e260048036038101906102dd91906126e6565b612124565b005b6102ec61261e565b6040516102f9919061263e565b60405180910390f35b6201518081565b736edd22e9792132614dd487ac6434dec3709b79a881565b60026020528060005260406000206000915090508060000160009054906101000a900473ffffffffffffffffffffffffffffffffffffffff16908060010160009054906101000a900473ffffffffffffffffffffffffffffffffffffffff16908060020160009054906101000a900473ffffffffffffffffffffffffffffffffffffffff16908060020160149054906101000a900460ff16908060030154908060040154908060050154908060060154905088565b60005481565b60036020528160005260406000206020528060005260406000206000915091509054906101000a900460ff1681565b600260045403610450576040517f08c379a000000000000000000000000000000000000000000000000000000000815260040161044790612981565b60405180910390fd5b6002600481905550620f424081101561049e576040517f08c379a0000000000000000000000000000000000000000000000000000000008152600401610495906129ed565b60405180910390fd5b600073833589fcd6edb6e08f4c7c32d4f71b54bda0291373ffffffffffffffffffffffffffffffffffffffff166370a08231306040518263ffffffff1660e01b81526004016104ed919061269a565b602060405180830381865afa15801561050a573d6000803e3d6000fd5b505050506040513d601f19601f8201168201806040525081019061052e9190612a22565b9050600073833589fcd6edb6e08f4c7c32d4f71b54bda0291373ffffffffffffffffffffffffffffffffffffffff166323b872dd3330866040518463ffffffff1660e01b815260040161058393929190612a4f565b6020604051808303816000875af11580156105a2573d6000803e3d6000fd5b505050506040513d601f19601f820116820180604052508101906105c69190612ab2565b905080610608576040517f08c379a00000000000000000000000000000000000000000000000000000000081526004016105ff90612b2b565b60405180910390fd5b600073833589fcd6edb6e08f4c7c32d4f71b54bda0291373ffffffffffffffffffffffffffffffffffffffff166370a08231306040518263ffffffff1660e01b8152600401610657919061269a565b602060405180830381865afa158015610674573d6000803e3d6000fd5b505050506040513d601f19601f820116820180604052508101906106989190612a22565b905083836106a69190612b7a565b81146106e7576040517f08c379a00000000000000000000000000000000000000000000000000000000081526004016106de90612bfa565b60405180910390fd5b83600160008282546106f99190612b7a565b92505081905550600080600081548092919061071490612c1a565b9190505590506040518061010001604052803373ffffffffffffffffffffffffffffffffffffffff168152602001600073ffffffffffffffffffffffffffffffffffffffff168152602001600073ffffffffffffffffffffffffffffffffffffffff168152602001600060048111156107905761078f612713565b5b815260200186815260200186815260200142815260200160008152506002600083815260200190815260200160002060008201518160000160006101000a81548173ffffffffffffffffffffffffffffffffffffffff021916908373ffffffffffffffffffffffffffffffffffffffff16021790555060208201518160010160006101000a81548173ffffffffffffffffffffffffffffffffffffffff021916908373ffffffffffffffffffffffffffffffffffffffff16021790555060408201518160020160006101000a81548173ffffffffffffffffffffffffffffffffffffffff021916908373ffffffffffffffffffffffffffffffffffffffff16021790555060608201518160020160146101000a81548160ff021916908360048111156108bf576108be612713565b5b02179055506080820151816003015560a0820151816004015560c0820151816005015560e082015181600601559050503373ffffffffffffffffffffffffffffffffffffffff16817f7dfb67e9ff596fca4da65c7eedb128cd1aac553af54b3c0cb733625a2480d8bd87604051610936919061263e565b60405180910390a350505050600160048190555050565b736edd22e9792132614dd487ac6434dec3709b79a873ffffffffffffffffffffffffffffffffffffffff163373ffffffffffffffffffffffffffffffffffffffff16146109cf576040517f08c379a00000000000000000000000000000000000000000000000000000000081526004016109c690612cae565b60405180910390fd5b600260045403610a14576040517f08c379a0000000000000000000000000000000000000000000000000000000008152600401610a0b90612981565b60405180910390fd5b6002600481905550600073833589fcd6edb6e08f4c7c32d4f71b54bda0291373ffffffffffffffffffffffffffffffffffffffff166370a08231306040518263ffffffff1660e01b8152600401610a6b919061269a565b602060405180830381865afa158015610a88573d6000803e3d6000fd5b505050506040513d601f19601f82011682018060405250810190610aac9190612a22565b9050600154811015610af3576040517f08c379a0000000000000000000000000000000000000000000000000000000008152600401610aea90612d1a565b60405180910390fd5b600060015482610b039190612d3a565b905080831115610b48576040517f08c379a0000000000000000000000000000000000000000000000000000000008152600401610b3f90612dba565b60405180910390fd5b600073833589fcd6edb6e08f4c7c32d4f71b54bda0291373ffffffffffffffffffffffffffffffffffffffff1663a9059cbb736edd22e9792132614dd487ac6434dec3709b79a8866040518363ffffffff1660e01b8152600401610bad929190612dda565b6020604051808303816000875af1158015610bcc573d6000803e3d6000fd5b505050506040513d601f19601f82011682018060405250810190610bf09190612ab2565b905080610c32576040517f08c379a0000000000000000000000000000000000000000000000000000000008152600401610c2990612e4f565b60405180910390fd5b736edd22e9792132614dd487ac6434dec3709b79a873ffffffffffffffffffffffffffffffffffffffff167f5fafa99d0643513820be26656b45130b01e1c03062e1266bf36f88cbd3bd969585604051610c8c919061263e565b60405180910390a2505050600160048190555050565b600260045403610ce7576040517f08c379a0000000000000000000000000000000000000000000000000000000008152600401610cde90612981565b60405180910390fd5b6002600481905550806000548110610d34576040517f08c379a0000000000000000000000000000000000000000000000000000000008152600401610d2b90612ebb565b60405180910390fd5b600073ffffffffffffffffffffffffffffffffffffffff166002600083815260200190815260200160002060000160009054906101000a900473ffffffffffffffffffffffffffffffffffffffff1673ffffffffffffffffffffffffffffffffffffffff1603610dd9576040517f08c379a0000000000000000000000000000000000000000000000000000000008152600401610dd090612f27565b60405180910390fd5b60006002600084815260200190815260200160002090503373ffffffffffffffffffffffffffffffffffffffff168160000160009054906101000a900473ffffffffffffffffffffffffffffffffffffffff1673ffffffffffffffffffffffffffffffffffffffff1614610e82576040517f08c379a0000000000000000000000000000000000000000000000000000000008152600401610e7990612f93565b60405180910390fd5b60006004811115610e9657610e95612713565b5b8160020160149054906101000a900460ff166004811115610eba57610eb9612713565b5b14610efa576040517f08c379a0000000000000000000000000000000000000000000000000000000008152600401610ef190612fff565b60405180910390fd5b610e108160050154610f0c9190612b7a565b421015610f4e576040517f08c379a0000000000000000000000000000000000000000000000000000000008152600401610f459061306b565b60405180910390fd5b60008160030154905060038260020160146101000a81548160ff02191690836004811115610f7f57610f7e612713565b5b02179055508060016000828254610f969190612d3a565b92505081905550600073833589fcd6edb6e08f4c7c32d4f71b54bda0291373ffffffffffffffffffffffffffffffffffffffff1663a9059cbb33846040518363ffffffff1660e01b8152600401610fee929190612dda565b6020604051808303816000875af115801561100d573d6000803e3d6000fd5b505050506040513d601f19601f820116820180604052508101906110319190612ab2565b905080611073576040517f08c379a000000000000000000000000000000000000000000000000000000000815260040161106a906130d7565b60405180910390fd5b3373ffffffffffffffffffffffffffffffffffffffff16857f58f64e02b3a6d2a3bd28b7700a0a0d6699545bcb55bf917ac0ff670f3a509efb60405160405180910390a350505050600160048190555050565b620f424081565b73833589fcd6edb6e08f4c7c32d4f71b54bda0291381565b60026004540361112a576040517f08c379a000000000000000000000000000000000000000000000000000000000815260040161112190612981565b60405180910390fd5b6002600481905550806000548110611177576040517f08c379a000000000000000000000000000000000000000000000000000000000815260040161116e90612ebb565b60405180910390fd5b600073ffffffffffffffffffffffffffffffffffffffff166002600083815260200190815260200160002060000160009054906101000a900473ffffffffffffffffffffffffffffffffffffffff1673ffffffffffffffffffffffffffffffffffffffff160361121c576040517f08c379a000000000000000000000000000000000000000000000000000000000815260040161121390612f27565b60405180910390fd5b60006002600084815260200190815260200160002090506001600481111561124757611246612713565b5b8160020160149054906101000a900460ff16600481111561126b5761126a612713565b5b146112ab576040517f08c379a00000000000000000000000000000000000000000000000000000000081526004016112a290613143565b60405180910390fd5b6201518081600601546112be9190612b7a565b421015611300576040517f08c379a00000000000000000000000000000000000000000000000000000000081526004016112f7906131af565b60405180910390fd5b8060000160009054906101000a900473ffffffffffffffffffffffffffffffffffffffff1673ffffffffffffffffffffffffffffffffffffffff163373ffffffffffffffffffffffffffffffffffffffff1614806113ad57508060010160009054906101000a900473ffffffffffffffffffffffffffffffffffffffff1673ffffffffffffffffffffffffffffffffffffffff163373ffffffffffffffffffffffffffffffffffffffff16145b6113ec576040517f08c379a00000000000000000000000000000000000000000000000000000000081526004016113e39061321b565b60405180910390fd5b6000816003015490506000600282611404919061326a565b9050600081836114149190612d3a565b905060048460020160146101000a81548160ff0219169083600481111561143e5761143d612713565b5b021790555082600160008282546114559190612d3a565b9250508190555073833589fcd6edb6e08f4c7c32d4f71b54bda0291373ffffffffffffffffffffffffffffffffffffffff1663a9059cbb8560000160009054906101000a900473ffffffffffffffffffffffffffffffffffffffff16846040518363ffffffff1660e01b81526004016114cf929190612dda565b6020604051808303816000875af11580156114ee573d6000803e3d6000fd5b505050506040513d601f19601f820116820180604052508101906115129190612ab2565b611551576040517f08c379a0000000000000000000000000000000000000000000000000000000008152600401611548906132e7565b60405180910390fd5b73833589fcd6edb6e08f4c7c32d4f71b54bda0291373ffffffffffffffffffffffffffffffffffffffff1663a9059cbb8560010160009054906101000a900473ffffffffffffffffffffffffffffffffffffffff16836040518363ffffffff1660e01b81526004016115c4929190612dda565b6020604051808303816000875af11580156115e3573d6000803e3d6000fd5b505050506040513d601f19601f820116820180604052508101906116079190612ab2565b611646576040517f08c379a000000000000000000000000000000000000000000000000000000000815260040161163d90613353565b60405180910390fd5b857fede9696d0c0329a7950f422187a69be414400513fb480cee4e5e781fc1f9a2e98560000160009054906101000a900473ffffffffffffffffffffffffffffffffffffffff16848760010160009054906101000a900473ffffffffffffffffffffffffffffffffffffffff16856040516116c49493929190613373565b60405180910390a25050505050600160048190555050565b736edd22e9792132614dd487ac6434dec3709b79a873ffffffffffffffffffffffffffffffffffffffff163373ffffffffffffffffffffffffffffffffffffffff161461175e576040517f08c379a000000000000000000000000000000000000000000000000000000000815260040161175590612cae565b60405180910390fd5b6002600454036117a3576040517f08c379a000000000000000000000000000000000000000000000000000000000815260040161179a90612981565b60405180910390fd5b60026004819055508160005481106117f0576040517f08c379a00000000000000000000000000000000000000000000000000000000081526004016117e790612ebb565b60405180910390fd5b600073ffffffffffffffffffffffffffffffffffffffff166002600083815260200190815260200160002060000160009054906101000a900473ffffffffffffffffffffffffffffffffffffffff1673ffffffffffffffffffffffffffffffffffffffff1603611895576040517f08c379a000000000000000000000000000000000000000000000000000000000815260040161188c90612f27565b60405180910390fd5b6000600260008581526020019081526020016000209050600160048111156118c0576118bf612713565b5b8160020160149054906101000a900460ff1660048111156118e4576118e3612713565b5b14611924576040517f08c379a000000000000000000000000000000000000000000000000000000000815260040161191b90613143565b60405180910390fd5b8060000160009054906101000a900473ffffffffffffffffffffffffffffffffffffffff1673ffffffffffffffffffffffffffffffffffffffff168373ffffffffffffffffffffffffffffffffffffffff1614806119d157508060010160009054906101000a900473ffffffffffffffffffffffffffffffffffffffff1673ffffffffffffffffffffffffffffffffffffffff168373ffffffffffffffffffffffffffffffffffffffff16145b611a10576040517f08c379a0000000000000000000000000000000000000000000000000000000008152600401611a0790613404565b60405180910390fd5b828160020160006101000a81548173ffffffffffffffffffffffffffffffffffffffff021916908373ffffffffffffffffffffffffffffffffffffffff16021790555060028160020160146101000a81548160ff02191690836004811115611a7b57611a7a612713565b5b02179055506000816003015490508060016000828254611a9b9190612d3a565b9250508190555060006064601483611ab39190613424565b611abd919061326a565b905060008183611acd9190612d3a565b905073833589fcd6edb6e08f4c7c32d4f71b54bda0291373ffffffffffffffffffffffffffffffffffffffff1663a9059cbb87836040518363ffffffff1660e01b8152600401611b1e929190612dda565b6020604051808303816000875af1158015611b3d573d6000803e3d6000fd5b505050506040513d601f19601f82011682018060405250810190611b619190612ab2565b611ba0576040517f08c379a0000000000000000000000000000000000000000000000000000000008152600401611b97906134b2565b60405180910390fd5b73833589fcd6edb6e08f4c7c32d4f71b54bda0291373ffffffffffffffffffffffffffffffffffffffff1663a9059cbb736edd22e9792132614dd487ac6434dec3709b79a8846040518363ffffffff1660e01b8152600401611c03929190612dda565b6020604051808303816000875af1158015611c22573d6000803e3d6000fd5b505050506040513d601f19601f82011682018060405250810190611c469190612ab2565b611c85576040517f08c379a0000000000000000000000000000000000000000000000000000000008152600401611c7c9061351e565b60405180910390fd5b8573ffffffffffffffffffffffffffffffffffffffff16877f05da8c4db77b35635ce26b87fbcc7380ff80950dc26b8f0a41e2309d4adb72a183604051611ccc919061263e565b60405180910390a3505050505060016004819055505050565b60015481565b600260045403611d30576040517f08c379a0000000000000000000000000000000000000000000000000000000008152600401611d2790612981565b60405180910390fd5b6002600481905550806000548110611d7d576040517f08c379a0000000000000000000000000000000000000000000000000000000008152600401611d7490612ebb565b60405180910390fd5b600073ffffffffffffffffffffffffffffffffffffffff166002600083815260200190815260200160002060000160009054906101000a900473ffffffffffffffffffffffffffffffffffffffff1673ffffffffffffffffffffffffffffffffffffffff1603611e22576040517f08c379a0000000000000000000000000000000000000000000000000000000008152600401611e1990612f27565b60405180910390fd5b600060026000848152602001908152602001600020905060006004811115611e4d57611e4c612713565b5b8160020160149054906101000a900460ff166004811115611e7157611e70612713565b5b14611eb1576040517f08c379a0000000000000000000000000000000000000000000000000000000008152600401611ea89061358a565b60405180910390fd5b8060000160009054906101000a900473ffffffffffffffffffffffffffffffffffffffff1673ffffffffffffffffffffffffffffffffffffffff163373ffffffffffffffffffffffffffffffffffffffff1603611f43576040517f08c379a0000000000000000000000000000000000000000000000000000000008152600401611f3a906135f6565b60405180910390fd5b600081600401549050600073833589fcd6edb6e08f4c7c32d4f71b54bda0291373ffffffffffffffffffffffffffffffffffffffff166323b872dd3330856040518463ffffffff1660e01b8152600401611f9f93929190612a4f565b6020604051808303816000875af1158015611fbe573d6000803e3d6000fd5b505050506040513d601f19601f82011682018060405250810190611fe29190612ab2565b905080612024576040517f08c379a000000000000000000000000000000000000000000000000000000000815260040161201b90612b2b565b60405180910390fd5b81600160008282546120369190612b7a565b92505081905550338360010160006101000a81548173ffffffffffffffffffffffffffffffffffffffff021916908373ffffffffffffffffffffffffffffffffffffffff16021790555060018360020160146101000a81548160ff021916908360048111156120a8576120a7612713565b5b0217905550818360030160008282546120c19190612b7a565b925050819055504283600601819055503373ffffffffffffffffffffffffffffffffffffffff16857f45c4f9cbafe186141862608c493f28b823fde4c2142bedc3f5169961a73fdd2260405160405180910390a350505050600160048190555050565b600260045403612169576040517f08c379a000000000000000000000000000000000000000000000000000000000815260040161216090612981565b60405180910390fd5b60026004819055508060005481106121b6576040517f08c379a00000000000000000000000000000000000000000000000000000000081526004016121ad90612ebb565b60405180910390fd5b600073ffffffffffffffffffffffffffffffffffffffff166002600083815260200190815260200160002060000160009054906101000a900473ffffffffffffffffffffffffffffffffffffffff1673ffffffffffffffffffffffffffffffffffffffff160361225b576040517f08c379a000000000000000000000000000000000000000000000000000000000815260040161225290612f27565b60405180910390fd5b60006002600084815260200190815260200160002090506001600481111561228657612285612713565b5b8160020160149054906101000a900460ff1660048111156122aa576122a9612713565b5b146122ea576040517f08c379a00000000000000000000000000000000000000000000000000000000081526004016122e190613143565b60405180910390fd5b8060000160009054906101000a900473ffffffffffffffffffffffffffffffffffffffff1673ffffffffffffffffffffffffffffffffffffffff163373ffffffffffffffffffffffffffffffffffffffff16148061239757508060010160009054906101000a900473ffffffffffffffffffffffffffffffffffffffff1673ffffffffffffffffffffffffffffffffffffffff163373ffffffffffffffffffffffffffffffffffffffff16145b6123d6576040517f08c379a00000000000000000000000000000000000000000000000000000000081526004016123cd9061321b565b60405180910390fd5b6003600084815260200190815260200160002060003373ffffffffffffffffffffffffffffffffffffffff1673ffffffffffffffffffffffffffffffffffffffff16815260200190815260200160002060009054906101000a900460ff1615612474576040517f08c379a000000000000000000000000000000000000000000000000000000000815260040161246b90613662565b60405180910390fd5b600073833589fcd6edb6e08f4c7c32d4f71b54bda0291373ffffffffffffffffffffffffffffffffffffffff166323b872dd33736edd22e9792132614dd487ac6434dec3709b79a8620f42406040518463ffffffff1660e01b81526004016124de93929190612a4f565b6020604051808303816000875af11580156124fd573d6000803e3d6000fd5b505050506040513d601f19601f820116820180604052508101906125219190612ab2565b905080612563576040517f08c379a000000000000000000000000000000000000000000000000000000000815260040161255a906136ce565b60405180910390fd5b60016003600086815260200190815260200160002060003373ffffffffffffffffffffffffffffffffffffffff1673ffffffffffffffffffffffffffffffffffffffff16815260200190815260200160002060006101000a81548160ff0219169083151502179055503373ffffffffffffffffffffffffffffffffffffffff16847f2d79642b9775ac0b8b340348abb2e0153508756e54c4505a2691886d96a7b54d60405160405180910390a3505050600160048190555050565b620f424081565b6000819050919050565b61263881612625565b82525050565b6000602082019050612653600083018461262f565b92915050565b600073ffffffffffffffffffffffffffffffffffffffff82169050919050565b600061268482612659565b9050919050565b61269481612679565b82525050565b60006020820190506126af600083018461268b565b92915050565b600080fd5b6126c381612625565b81146126ce57600080fd5b50565b6000813590506126e0816126ba565b92915050565b6000602082840312156126fc576126fb6126b5565b5b600061270a848285016126d1565b91505092915050565b7f4e487b7100000000000000000000000000000000000000000000000000000000600052602160045260246000fd5b6005811061275357612752612713565b5b50565b600081905061276482612742565b919050565b600061277482612756565b9050919050565b61278481612769565b82525050565b6000610100820190506127a0600083018b61268b565b6127ad602083018a61268b565b6127ba604083018961268b565b6127c7606083018861277b565b6127d4608083018761262f565b6127e160a083018661262f565b6127ee60c083018561262f565b6127fb60e083018461262f565b9998505050505050505050565b61281181612679565b811461281c57600080fd5b50565b60008135905061282e81612808565b92915050565b6000806040838503121561284b5761284a6126b5565b5b6000612859858286016126d1565b925050602061286a8582860161281f565b9150509250929050565b60008115159050919050565b61288981612874565b82525050565b60006020820190506128a46000830184612880565b92915050565b6000819050919050565b60006128cf6128ca6128c584612659565b6128aa565b612659565b9050919050565b60006128e1826128b4565b9050919050565b60006128f3826128d6565b9050919050565b612903816128e8565b82525050565b600060208201905061291e60008301846128fa565b92915050565b600082825260208201905092915050565b7f5265656e7472616e637947756172643a207265656e7472616e742063616c6c00600082015250565b600061296b601f83612924565b915061297682612935565b602082019050919050565b6000602082019050818103600083015261299a8161295e565b9050919050565b7f4d696e2057616765722031205553444300000000000000000000000000000000600082015250565b60006129d7601083612924565b91506129e2826129a1565b602082019050919050565b60006020820190508181036000830152612a06816129ca565b9050919050565b600081519050612a1c816126ba565b92915050565b600060208284031215612a3857612a376126b5565b5b6000612a4684828501612a0d565b91505092915050565b6000606082019050612a64600083018661268b565b612a71602083018561268b565b612a7e604083018461262f565b949350505050565b612a8f81612874565b8114612a9a57600080fd5b50565b600081519050612aac81612a86565b92915050565b600060208284031215612ac857612ac76126b5565b5b6000612ad684828501612a9d565b91505092915050565b7f55534443205472616e73666572204661696c6564000000000000000000000000600082015250565b6000612b15601483612924565b9150612b2082612adf565b602082019050919050565b60006020820190508181036000830152612b4481612b08565b9050919050565b7f4e487b7100000000000000000000000000000000000000000000000000000000600052601160045260246000fd5b6000612b8582612625565b9150612b9083612625565b9250828201905080821115612ba857612ba7612b4b565b5b92915050565b7f4465666c6174696f6e61727920546f6b656e204e6f7420537570706f72746564600082015250565b6000612be4602083612924565b9150612bef82612bae565b602082019050919050565b60006020820190508181036000830152612c1381612bd7565b9050919050565b6000612c2582612625565b91507fffffffffffffffffffffffffffffffffffffffffffffffffffffffffffffffff8203612c5757612c56612b4b565b5b600182019050919050565b7f4e6f7420417574686f72697a6564000000000000000000000000000000000000600082015250565b6000612c98600e83612924565b9150612ca382612c62565b602082019050919050565b60006020820190508181036000830152612cc781612c8b565b9050919050565b7f4163636f756e74696e67204572726f723a2042616c616e6365203c2054564c00600082015250565b6000612d04601f83612924565b9150612d0f82612cce565b602082019050919050565b60006020820190508181036000830152612d3381612cf7565b9050919050565b6000612d4582612625565b9150612d5083612625565b9250828203905081811115612d6857612d67612b4b565b5b92915050565b7f43616e6e6f7420776974686472617720557365722046756e6473000000000000600082015250565b6000612da4601a83612924565b9150612daf82612d6e565b602082019050919050565b60006020820190508181036000830152612dd381612d97565b9050919050565b6000604082019050612def600083018561268b565b612dfc602083018461262f565b9392505050565b7f5472616e73666572204661696c65640000000000000000000000000000000000600082015250565b6000612e39600f83612924565b9150612e4482612e03565b602082019050919050565b60006020820190508181036000830152612e6881612e2c565b9050919050565b7f496e76616c69642047616d652049440000000000000000000000000000000000600082015250565b6000612ea5600f83612924565b9150612eb082612e6f565b602082019050919050565b60006020820190508181036000830152612ed481612e98565b9050919050565b7f47616d65204e6f7420496e697469616c697a6564000000000000000000000000600082015250565b6000612f11601483612924565b9150612f1c82612edb565b602082019050919050565b60006020820190508181036000830152612f4081612f04565b9050919050565b7f4e6f742063726561746f72000000000000000000000000000000000000000000600082015250565b6000612f7d600b83612924565b9150612f8882612f47565b602082019050919050565b60006020820190508181036000830152612fac81612f70565b9050919050565b7f43616e6e6f742063616e63656c206163746976652f636c6f7365642067616d65600082015250565b6000612fe9602083612924565b9150612ff482612fb3565b602082019050919050565b6000602082019050818103600083015261301881612fdc565b9050919050565b7f52657669657720506572696f6420416374697665202831682900000000000000600082015250565b6000613055601983612924565b91506130608261301f565b602082019050919050565b6000602082019050818103600083015261308481613048565b9050919050565b7f526566756e64204661696c656400000000000000000000000000000000000000600082015250565b60006130c1600d83612924565b91506130cc8261308b565b602082019050919050565b600060208201905081810360008301526130f0816130b4565b9050919050565b7f47616d65206e6f74206163746976650000000000000000000000000000000000600082015250565b600061312d600f83612924565b9150613138826130f7565b602082019050919050565b6000602082019050818103600083015261315c81613120565b9050919050565b7f47616d65206e6f74207965742074696d6564206f757400000000000000000000600082015250565b6000613199601683612924565b91506131a482613163565b602082019050919050565b600060208201905081810360008301526131c88161318c565b9050919050565b7f4e6f74206120706c617965720000000000000000000000000000000000000000600082015250565b6000613205600c83612924565b9150613210826131cf565b602082019050919050565b60006020820190508181036000830152613234816131f8565b9050919050565b7f4e487b7100000000000000000000000000000000000000000000000000000000600052601260045260246000fd5b600061327582612625565b915061328083612625565b9250826132905761328f61323b565b5b828204905092915050565b7f526566756e642043726561746f72204661696c65640000000000000000000000600082015250565b60006132d1601583612924565b91506132dc8261329b565b602082019050919050565b60006020820190508181036000830152613300816132c4565b9050919050565b7f526566756e64204f70706f6e656e74204661696c656400000000000000000000600082015250565b600061333d601683612924565b915061334882613307565b602082019050919050565b6000602082019050818103600083015261336c81613330565b9050919050565b6000608082019050613388600083018761268b565b613395602083018661262f565b6133a2604083018561268b565b6133af606083018461262f565b95945050505050565b7f496e76616c69642077696e6e6572000000000000000000000000000000000000600082015250565b60006133ee600e83612924565b91506133f9826133b8565b602082019050919050565b6000602082019050818103600083015261341d816133e1565b9050919050565b600061342f82612625565b915061343a83612625565b925082820261344881612625565b9150828204841483151761345f5761345e612b4b565b5b5092915050565b7f5061796f7574205472616e73666572204661696c656400000000000000000000600082015250565b600061349c601683612924565b91506134a782613466565b602082019050919050565b600060208201905081810360008301526134cb8161348f565b9050919050565b7f466565205472616e73666572204661696c656400000000000000000000000000600082015250565b6000613508601383612924565b9150613513826134d2565b602082019050919050565b60006020820190508181036000830152613537816134fb565b9050919050565b7f47616d65206e6f74206f70656e00000000000000000000000000000000000000600082015250565b6000613574600d83612924565b915061357f8261353e565b602082019050919050565b600060208201905081810360008301526135a381613567565b9050919050565b7f43616e6e6f7420706c617920616761696e73742073656c660000000000000000600082015250565b60006135e0601883612924565b91506135eb826135aa565b602082019050919050565b6000602082019050818103600083015261360f816135d3565b9050919050565b7f416c72656164792072657669766564206f6e6365000000000000000000000000600082015250565b600061364c601483612924565b915061365782613616565b602082019050919050565b6000602082019050818103600083015261367b8161363f565b9050919050565b7f526576697665205061796d656e74204661696c65640000000000000000000000600082015250565b60006136b8601583612924565b91506136c382613682565b602082019050919050565b600060208201905081810360008301526136e7816136ab565b905091905056fea264697066735822122060434ad979676047df8f073eef1eb9c3a08f1de57bc4b7114c8a5ef1482a4c8564736f6c63430008140033",
  "linkReferences": {},
  "deployedLinkReferences": {}
}