{
  "_format": "hh-sol-artifact-1",
  "contractName": "GMRegistry",
  "sourceName": "contracts/GMRegistry.sol",
  "abi": [
    {
      "anonymous": false,
      "inputs": [
        {
          "indexed": true,
          "internalType": "address",
          "name": "player",
          "type": "address"
        },
        {
          "indexed": false,
          "internalType": "uint256",
          "name": "streak",
          "type": "uint256"
        },
        {
          "indexed": false,
          "internalType": "uint256",
          "name": "timestamp",
          "type": "uint256"
        }
      ],
      "name": "GMSent",
      "type": "event"
    },
    {
      "inputs": [
        {
          "internalType": "address",
          "name": "player",
          "type": "address"
        }
      ],
      "name": "getStreak",
      "outputs": [
        {
          "internalType": "uint256",
          "name": "count",
          "type": "uint256"
        },
        {
          "internalType": "uint256",
          "name": "last",
          "type": "uint256"
        },
        {
          "internalType": "bool",
          "name": "canGM",
          "type": "bool"
        }
      ],
      "stateMutability": "view",
      "type": "function"
    },
    {
      "inputs": [],
      "name": "gm",
      "outputs": [],
      "stateMutability": "nonpayable",
      "type": "function"
    },
    {
      "inputs": [
        {
          "internalType": "address",
          "name": "",
          "type": "address"
        }
      ],
      "name": "lastGMTime",
      "outputs": [
        {
          "internalType": "uint256",
          "name": "",
          "type": "uint256"
        }
      ],
      "stateMutability": "view",
      "type": "function"
    },
    {
      "inputs": [
        {
          "internalType": "address",
          "name": "",
          "type": "address"
        }
      ],
      "name": "streaks",
      "outputs": [
        {
          "internalType": "uint256",
          "name": "",
          "type": "uint256"
        }
      ],
      "stateMutability": "view",
      "type": "function"
    }
  ],
  "bytecode": "0x608060405234801561001057600080fd5b50610668806100206000396000f3fe608060405234801561001057600080fd5b506004361061004c5760003560e01c80635eeadb0d1461005157806379f8b97f1461008357806379fd9365146100b3578063c0129d43146100e3575b600080fd5b61006b6004803603810190610066919061042e565b6100ed565b60405161007a9392919061048f565b60405180910390f35b61009d6004803603810190610098919061042e565b6101aa565b6040516100aa91906104c6565b60405180910390f35b6100cd60048036038101906100c8919061042e565b6101c2565b6040516100da91906104c6565b60405180910390f35b6100eb6101da565b005b6000806000600160008573ffffffffffffffffffffffffffffffffffffffff1673ffffffffffffffffffffffffffffffffffffffff1681526020019081526020016000205492506000808573ffffffffffffffffffffffffffffffffffffffff1673ffffffffffffffffffffffffffffffffffffffff1681526020019081526020016000205491506202a300826101849190610510565b42111561019057600092505b620151808261019f9190610510565b421190509193909250565b60006020528060005260406000206000915090505481565b60016020528060005260406000206000915090505481565b60008060003373ffffffffffffffffffffffffffffffffffffffff1673ffffffffffffffffffffffffffffffffffffffff1681526020019081526020016000205490506000600160003373ffffffffffffffffffffffffffffffffffffffff1673ffffffffffffffffffffffffffffffffffffffff168152602001908152602001600020549050600082148061027d57506202a3008261027a9190610510565b42115b1561028b57600190506102f0565b620151808261029a9190610510565b4211156102b45780806102ac90610544565b9150506102ef565b6040517f08c379a00000000000000000000000000000000000000000000000000000000081526004016102e6906105e9565b60405180910390fd5b5b426000803373ffffffffffffffffffffffffffffffffffffffff1673ffffffffffffffffffffffffffffffffffffffff1681526020019081526020016000208190555080600160003373ffffffffffffffffffffffffffffffffffffffff1673ffffffffffffffffffffffffffffffffffffffff168152602001908152602001600020819055503373ffffffffffffffffffffffffffffffffffffffff167f45ee41c97343df2fca08250ccd66e4eb7a71c13ff56027ab3bf2851b0e5d3cda82426040516103bf929190610609565b60405180910390a25050565b600080fd5b600073ffffffffffffffffffffffffffffffffffffffff82169050919050565b60006103fb826103d0565b9050919050565b61040b816103f0565b811461041657600080fd5b50565b60008135905061042881610402565b92915050565b600060208284031215610444576104436103cb565b5b600061045284828501610419565b91505092915050565b6000819050919050565b61046e8161045b565b82525050565b60008115159050919050565b61048981610474565b82525050565b60006060820190506104a46000830186610465565b6104b16020830185610465565b6104be6040830184610480565b949350505050565b60006020820190506104db6000830184610465565b92915050565b7f4e487b7100000000000000000000000000000000000000000000000000000000600052601160045260246000fd5b600061051b8261045b565b91506105268361045b565b925082820190508082111561053e5761053d6104e1565b5b92915050565b600061054f8261045b565b91507fffffffffffffffffffffffffffffffffffffffffffffffffffffffffffffffff8203610581576105806104e1565b5b600182019050919050565b600082825260208201905092915050565b7f474d20636f6f6c646f776e206163746976652028323468290000000000000000600082015250565b60006105d360188361058c565b91506105de8261059d565b602082019050919050565b60006020820190508181036000830152610602816105c6565b9050919050565b600060408201905061061e6000830185610465565b61062b6020830184610465565b939250505056fea26469706673582212207b77d8bbe6126bc26489a170b90f55ddbaa975789dc130116a1ffebd3d9fef0464736f6c63430008140033",
  "linkReferences": {},
  "deployedLinkReferences": {}
}